{
  "contractName": "DataRecords",
  "abi": [
    {
      "constant": false,
      "inputs": [
        {
          "name": "key",
          "type": "bytes32"
        },
        {
          "name": "name",
          "type": "string"
        },
        {
          "name": "description",
          "type": "string"
        },
        {
          "name": "value",
          "type": "string"
        }
      ],
      "name": "StoreRecord",
      "outputs": [
        {
          "name": "result",
          "type": "uint256"
        }
      ],
      "payable": false,
      "stateMutability": "nonpayable",
      "type": "function"
    },
    {
      "constant": true,
      "inputs": [
        {
          "name": "key",
          "type": "bytes32"
        },
        {
          "name": "index",
          "type": "uint256"
        }
      ],
      "name": "GetRecord",
      "outputs": [
        {
          "name": "name",
          "type": "string"
        },
        {
          "name": "description",
          "type": "string"
        },
        {
          "name": "value",
          "type": "string"
        }
      ],
      "payable": false,
      "stateMutability": "view",
      "type": "function"
    }
  ],
  "bytecode": "0x6060604052341561000f57600080fd5b61087f8061001e6000396000f30060606040526004361061004c576000357c0100000000000000000000000000000000000000000000000000000000900463ffffffff16806348aef15514610051578063f027841514610155575b600080fd5b341561005c57600080fd5b61013f60048080356000191690602001909190803590602001908201803590602001908080601f0160208091040260200160405190810160405280939291908181526020018383808284378201915050505050509190803590602001908201803590602001908080601f0160208091040260200160405190810160405280939291908181526020018383808284378201915050505050509190803590602001908201803590602001908080601f016020809104026020016040519081016040528093929190818152602001838380828437820191505050505050919050506102d6565b6040518082815260200191505060405180910390f35b341561016057600080fd5b6101836004808035600019169060200190919080359060200190919050506103a4565b60405180806020018060200180602001848103845287818151815260200191508051906020019080838360005b838110156101cb5780820151818401526020810190506101b0565b50505050905090810190601f1680156101f85780820380516001836020036101000a031916815260200191505b50848103835286818151815260200191508051906020019080838360005b83811015610231578082015181840152602081019050610216565b50505050905090810190601f16801561025e5780820380516001836020036101000a031916815260200191505b50848103825285818151815260200191508051906020019080838360005b8381101561029757808201518184015260208101905061027c565b50505050905090810190601f1680156102c45780820380516001836020036101000a031916815260200191505b50965050505050505060405180910390f35b60006102e0610689565b6060604051908101604052808681526020018581526020018481525090506000808760001916600019168152602001908152602001600020805480600101828161032a91906106bd565b91600052602060002090600302016000839091909150600082015181600001908051906020019061035c9291906106ef565b5060208201518160010190805190602001906103799291906106ef565b5060408201518160020190805190602001906103969291906106ef565b505050915050949350505050565b6103ac61076f565b6103b461076f565b6103bc61076f565b6103c6858561065e565b15610652576000808660001916600019168152602001908152602001600020848154811015156103f257fe5b906000526020600020906003020160000160008087600019166000191681526020019081526020016000208581548110151561042a57fe5b906000526020600020906003020160010160008088600019166000191681526020019081526020016000208681548110151561046257fe5b9060005260206000209060030201600201828054600181600116156101000203166002900480601f0160208091040260200160405190810160405280929190818152602001828054600181600116156101000203166002900480156105085780601f106104dd57610100808354040283529160200191610508565b820191906000526020600020905b8154815290600101906020018083116104eb57829003601f168201915b50505050509250818054600181600116156101000203166002900480601f0160208091040260200160405190810160405280929190818152602001828054600181600116156101000203166002900480156105a45780601f10610579576101008083540402835291602001916105a4565b820191906000526020600020905b81548152906001019060200180831161058757829003601f168201915b50505050509150808054600181600116156101000203166002900480601f0160208091040260200160405190810160405280929190818152602001828054600181600116156101000203166002900480156106405780601f1061061557610100808354040283529160200191610640565b820191906000526020600020905b81548152906001019060200180831161062357829003601f168201915b50505050509050925092509250610657565b600080fd5b9250925092565b6000816000808560001916600019168152602001908152602001600020805490501015905092915050565b60606040519081016040528061069d610783565b81526020016106aa610783565b81526020016106b7610783565b81525090565b8154818355818115116106ea576003028160030283600052602060002091820191016106e99190610797565b5b505050565b828054600181600116156101000203166002900490600052602060002090601f016020900481019282601f1061073057805160ff191683800117855561075e565b8280016001018555821561075e579182015b8281111561075d578251825591602001919060010190610742565b5b50905061076b91906107e6565b5090565b602060405190810160405280600081525090565b602060405190810160405280600081525090565b6107e391905b808211156107df57600080820160006107b6919061080b565b6001820160006107c6919061080b565b6002820160006107d6919061080b565b5060030161079d565b5090565b90565b61080891905b808211156108045760008160009055506001016107ec565b5090565b90565b50805460018160011615610100020316600290046000825580601f106108315750610850565b601f01602090049060005260206000209081019061084f91906107e6565b5b505600a165627a7a723058207036f5b185154e8729d428bfdc39b8398d00602195df4a50f81ff13d58a3750d0029",
  "source": "pragma solidity ^0.4.4;\r\n\r\ncontract DataRecords {\r\n\r\n    mapping (bytes32=>Data[]) private _records;\r\n\r\n    struct Data{\r\n        string name;\r\n        string description;\r\n        string value;\r\n    }\r\n\r\n    function StoreRecord(bytes32 key, string name, string description, string value) public returns (uint256 result) {\r\n        var record = Data(name, description, value);\r\n        return _records[key].push(record);\r\n    }\r\n\r\n    function GetRecord(bytes32 key, uint256 index) public view returns (string name, string description, string value) {\r\n        if (RecordExists(key, index))\r\n        {\r\n            return(\r\n                _records[key][index].name,\r\n                _records[key][index].description,\r\n                _records[key][index].value\r\n            );\r\n        }\r\n        revert();\r\n    }\r\n\r\n    function RecordExists(bytes32 key, uint256 index) private view returns (bool exists) {\r\n        return _records[key].length >= index;\r\n    } \r\n}",
  "sourcePath": "C:\\Work\\SmartContractData\\contracts\\DataRecords.sol",
  "compiler": {
    "name": "solc",
    "version": "0.4.19+commit.c4cbbb05.Emscripten.clang"
  },
  "schemaVersion": "2.0.0",
  "updatedAt": "2018-05-14T20:30:03.246Z"
}